:0C0000000C9434000C9400000C940000E0
:10000C000C9400000C9400000C9451000C94000013
:10001C000C9400000C9400000C9400000C94000054
:10002C000C9400000C9400000C9400000C94000044
:10003C000C9400000C9400000C9400000C94000034
:10004C000C9400000C9400000C9400000C94000024
:10005C000C9400000C9400000C940000F894EE2713
:10006C00EFBBF1E0F5BFE5BF8DE0A2E0BB27ED9360
:10007C008A95E9F780E098E0A0E0B1E0ED93019774
:10008C00E9F7E0E0EEBBEFEFEDBFE8E0EEBFC0E07C
:10009C00D3E00C945300289A1895E0E8E0936100A3
:1000AC00E0E0E0936100E1E0E4B9E2E0E5B9E0E032
:1000BC00E7B9E8B9EAB9EFEFEBB9E0E0E4BDE5BDCB
:1000CC00E6BDE7BDE8BDE0938000E0938100E093DE
:1000DC008500E0938400E0938700E0938600E09332
:1000EC008900E0938800E0938B00E0938A00E09312
:1000FC00B600E093B000E093B100E093B200E0935F
:10010C00B300E093B400E0936E00E0936F00E093D3
:10011C007000E0936900EDBBE4E0E0936800EFE071
:10012C00E0936D00E4E0EBBBE0E0E093C100E0E8BD
:10013C00E0BFE0E0E0937B00E0937F00E0937A0087
:10014C00ECBDE093BC007894199B2898FDCFFFCFB1
:00000001FF
