:080000000C944B000C947A00F3
:100008000C9400000C9400000C9400000C94000068
:100018000C9400000C9400000C9400000C94000058
:100028000C9400000C9400000C9400000C94000048
:100038000C9400000C9400000C9400000C94000038
:100048000C9400000C9400000C9400000C94000028
:100058000C9400000C9400000C9400000C94000018
:100068001027E80364000A000100001000011000D6
:1000780001000000736F2073703A2025640080C06F
:10008800020003007A000200100386000000F894C2
:10009800EE27EFBBF1E0F5BFE5BF8DE0A2E0BB279F
:1000A800ED938A95E9F780E098E0A0E0B1E0ED9360
:1000B8000197E9F7E8E8F0E085919591009761F0FC
:1000C800A591B59105901590BF01F00105900D928D
:1000D8000197E1F7FB01F0CFE0E0EEBBEFEFEDBFFA
:1000E800E8E0EEBFC0E0D3E00C94B2000A921A92A6
:1000F800FA926A937A938A939A93AA93BA93EA9311
:10010800FA93EFB7EA93E1E0F0E03E0E4F1E0ED00F
:10011800E991EFBFF991E991B991A99199918991E3
:1001280079916991F990199009901895E0E0F3E0B8
:10013800FA93EA93ECE7F0E0FA93EA93E32DF42DCF
:100148000E94BC030E94C90384E0D9D128960E946A
:10015800F602A0E0B3E00E9417030895E0E8E093F8
:100168006100E0E0E0936100E4B9E5B9E7B9E8B916
:10017800EAB9E8E0EBB9E0E0E4BDE5BDE6BDE7BD1E
:10018800E8BDE0938000E0938100E0938500E09370
:100198008400E0938700E0938600E0938900E09371
:1001A8008800E0938B00E0938A00E093B600E09328
:1001B800B000E093B100E093B200E093B300E093A5
:1001C800B400E0936E00E0936F00E0937000E2E00B
:1001D800E0936900E1E0EDBBECBBE0E0E093680090
:1001E800E093C100E0E8E0BFE0E0E0937B00E0934B
:1001F8007F00E0937A00ECBDE093BC00A0E10E9490
:10020800280378944B9905C0332444248FDF4B9BF3
:10021800FECFF8CFFFCFBA93AA931A930A93AA8175
:10022800BB8112960E94C103309759F1AA81BB8104
:1002380014960E94C1038F01309761F00230E0E00C
:100248001E0798F0F80131978F01AA81BB81149697
:10025800ED93FC93AA81BB811296ED91FD913196A5
:10026800FE93EE933197AC81A083AA81BB810E9453
:10027800C103FF232AF0ED91FD913196FE93EE9391
:1002880006C0AA81BB81EFEFFFEFED93FC931981C4
:10029800088125960895BA93AA9326970E94CE03BB
:1002A80010E0AC85BD85E0E0F0E0ED93FC93EA89D1
:1002B800FB893196EA8BFB8B3197E4912E2FE03046
:1002C80009F415C1E12FE03039F4253211F411E0B9
:1002D80002C00E9470030AC1E130A9F4253219F462
:1002E8000E94700302C112E040E000E02D3211F4D8
:1002F80001E0FCC02B3211F44BE2F8C0203211F4BB
:1003080040E2F4C002C0E23039F450E013E0203398
:1003180011F40068EBC003C0E33009F0E7C02033F4
:1003280010F02A3308F007C0AAE05A9F502DE22F98
:10033800E0535E0FDBC0E22FE33649F40E947703F7
:10034800E889F989A481AA930E947D03CEC0E33786
:1003580041F40E9477030E9483030E9457031E2FD3
:100368000AC0E03761F40E9477030E9483030E9469
:1003780063031E2F086002600F7730E034C0E43654
:1003880011F0E93611F4046002C0E53731F4E8E60B
:10039800F0E0EE83FF8315E00CC0E83511F4086047
:1003A80003C0E83709F0A1C0E2E7F0E0EE83FF837D
:1003B80014E002FF14C00E9477030E948D03AB85EE
:1003C800AA233AF4EA85FB850E94B803EA87FB87EB
:1003D8004DE2403011F01F5F01C00B7F04C00E9446
:1003E80077030E948D0300FD11C0151778F407FFED
:1003F80008C002FF04C00B7F242F115001C020E366
:1004080001C020E20E9470035150EFCF312F01FF4D
:1004180017C03030A1F003FF06C0EE81FF8125919F
:10042800EE83FF8305C0AE81BF812D91AE83BF836C
:100438000E947003503009F051503150EACF4BC040
:1004480020E3EE81FF810E94C503E887F987EE81EA
:10045800FF813296EE83FF83E885F985AA85BB85FF
:10046800AE17BF0750F02F5FA885B985EA85FB85D1
:10047800EA1BFB0BEA87FB87EFCF2A3328F003FF41
:1004880002C0295F01C0295D04FD1AC0213320F490
:10049800A885B985119709F409C0531710F000FF12
:1004A80001C013C020E207FF0BC020E3006102FF78
:1004B80007C00B7F4A930E947D03503009F05150CA
:1004C8000E947003503009F051503150A885B98509
:1004D800129708F0B5CF00FF08C0503031F05150E6
:1004E800E0E2EA930E947D03F8CF10E0E0CEAC850D
:1004F800BD850E94C1030E94D50364960895FF92AA
:10050800F82E26970E94D0030E949503309719F47D
:10051800EFEFFFEF23C0DE0116960E94B4038D01B2
:100528000E949503EE83FF83E0E0E887E987DE0118
:100538001A960E94B4030E94C103FA93EA931A938D
:100548000A93EFE0F1E0FA93EA93DE011A96A3DE4C
:100558009F01AE81BF81E0E0EC93F9010E94D703CF
:100568002A96FF900895AA93E881E07111F02B9ADA
:1005780001C02B98E881E07211F02C9A01C02C98E8
:10058800E881E07411F02D9A01C02D98E881E07897
:1005980011F0409A01C040988BE18A95F1F72A9AA8
:1005A8008BE18A95F1F72A988BE18A95F1F779C062
:1005B800AA93A881D8DFE881E295E883A881D3DFF0
:1005C80088EC90E00197F1F76CC0AA93E881F0E01D
:1005D800E05FFC4FE081A981AE0FEADF69805880B7
:1005E80022960895A2E00E949C03ACE0E1DFA1E01E
:1005F8000E949C03E0E05E2E6E2E0895AA93A881C7
:10060800AA3011F0681448F0E0E0EA935394A52D5D
:10061800DCDFA881AA3009F444C06394289AA88131
:10062800C7DF28983EC0BA93AA931A93A981BA81C2
:10063800ED91A983BA831E2FE03019F0A12FDEDFD8
:10064800F5CF188123960895AA93239A249A259A78
:10065800389A229A209A219A2A9828982998888044
:10066800E881E058E0931203E881E054E093130333
:10067800A4E1B0E00E94AA030E94A2030E94A20380
:100688000E94A203A0E26FDF80E991E00197F1F7F1
:10069800A8E28EDFA4E08CDFA5E88ADFA6E088DF89
:1006A800A1DF21960895BA93AA93A991B991EE274B
:1006B800FF276D91662311F03196FBCF0895BA9309
:1006C800AA93AA27BB27E991F9910590002011F078
:1006D8001196FBCFFD0108952A93AD85BE85EF8560
:1006E800F88909950895E889F9893497E88BF98B91
:1006F8000895AD85BE85EF85F88909950895A8897F
:10070800B98914960E94C103EE83FF83AE81BF812D
:100718000895A889B98914960E94C103EA87FB87BE
:100728000895DE011C960E94B4030E94C103089537
:100738000E94DC02A3E0B0E00C94AA03A0E30E94AC
:10074800B70280E991E00197F1F70895109639F022
:1007580080EA9FE00197F1F7A8951197C9F70895E6
:100768000024AF0DB01D0895F195E195F04008956E
:100778006F2F660F660B762F0895ED91FC911197F8
:1007880008950590F491E02D08957A936A93FA9369
:10079800EA9308955A934A933A932A931A930A9399
:1007A80008955D814C813B812A81198108810895D2
:00000001FF
