:0E0000000C94A4000C941B010C942B010C9486
:10000E0000000C9400000C9400000C9400000C9462
:10001E0000000C9400000C9400000C9400000C9452
:10002E0000000C9400000C9400000C9400000C9442
:10003E0000000C9400000C9400000C9400000C9432
:10004E0000000C9400001027E80364000A00010071
:10005E0000100001100001000000010001000A0064
:10006E001000180008000C00040006000200120028
:10007E0012000200060004000C0008001800100018
:10008E0012000200060004000C0008001800100008
:10009E0012000200060004000C00080018001000F8
:1000AE00436C6F636B7769736500436F756E746530
:1000BE007220636C6F636B0053746F702100576511
:1000CE006C636F6D6521005370656564203D20255E
:1000DE007372706D000080C001002D4E414E0049BC
:1000EE004E4600000800040066000F00CD016E00B1
:1000FE000F00DD017E000F00ED018E000F00FD01EF
:10010E009E000A006001AE000E006A01B8000600F3
:10011E007801C6000A007E01AE000E008801B8000C
:10012E0009009601CC000A009F01AE0002000D02EC
:10013E00E40001001402E6000000F894EE27ECBB88
:10014E00F1E0FBBFEBBFE5BF8DE0A2E0BB27ED9377
:10015E008A95E9F780E094E0A0E6ED930197E9F740
:10016E00E2EFF0E085919591009761F0A591B59140
:10017E0005901590BF01F00105900D920197E1F7E2
:10018E00FB01F0CFEFE5EDBFE4E0EEBFC0E6D1E05E
:10019E000C9483010E948905A0E6B1E00E949205AD
:1001AE000E94970570F40E949C050E94A205ADED79
:1001BE00B1E00E94A7050E94B905F20131962F0108
:1001CE00EFCF442455240E94970540F40E949C05CD
:1001DE000E94C105F20131962F01F5CF40C10E9458
:1001EE008905AAE6B1E00E9492050E94970570F477
:1001FE000E949C050E94A205ADECB1E00E94A705ED
:10020E000E94B905F20131962F01EFCF44245524F7
:10021E000E94970540F40E949C050E94C105F201C0
:10022E0031962F01F5CF1BC10E94C905082C092854
:10023E0031F4E1E0F0E04F01D501ACDF04C08824D9
:10024E009924D501CCDF4AC00E94C905E1E0F0E057
:10025E00E615F705C1F40E94DA05A8E7B1E00E94A1
:10026E0092050E94970560F40E949C05AE0FBF1F79
:10027E00E0E0F0E0ED93FC93F20131962F01F1CF27
:10028E00662477242BC0E091DD01F091DE01A09170
:10029E00FD01B091FE01EA17FB0729F40E94DA0571
:1002AE00AEE7B1E004C00E94DA05A8E8B1E007D1DC
:1002BE00442455240E94970570F40E949C050E94C8
:1002CE00A205ADEFB1E0EE0FFF1F0E94B905F201DE
:1002DE0031962F01EFCFE1E0F0E03F01E991EFBF62
:1002EE00F991E991B991A991999189917991699130
:1002FE00F990199009901895EBB7E06CEBBFEAE016
:10030E00E5BFE0E0E4BFE0ECEABF7894E0E0EABBF2
:10031E00EBBBEFE0E7BBE0E0E8BBE4BBE5BBE0E353
:10032E00E1BBE2BBA0E1DCD0A6E9B1E0C8D00E94FF
:10033E00E1050E94DA05AFE9B1E0C1D0F50166270B
:10034E0077270E94D106A0E0B0E080E895E40E94F5
:10035E005B07A0E0B0E68AE697E40E94A907E09367
:10036E00A901F093AA016093AB017093AC010E94B6
:10037E003A08E2E0EA93ADEBB1E00E944E04EDEAFA
:10038E00F1E0FA93EA93E5EDF0E0FA93EA93EDEB00
:10039E00F1E0662777270E943A0884E00E941A044B
:1003AE002896E0E0EA93A1E04BD0ADEAB1E087D029
:1003BE0084990AC00E94E105E1E0F0E0EA15FB0530
:1003CE0018F4F50131975F01859905C00E94E1058A
:1003DE00F50132965F01442455240E94970568F476
:1003EE000E949C05AE0FBF1FEC91E8BBD5010E9489
:1003FE005B06F20131962F01F0CFA0CFFFCFAA936B
:10040E00EBB3EF70AE2FE881E07FEA2BEBBB8BE115
:10041E008A95F1F7DA9A8BE18A95F1F7DA988BE102
:10042E008A95F1F78AC0AA93A881E9DFE881E2955F
:10043E00E883A881E4DF88EC90E00197F1F77DC0B6
:10044E00AA93E881F0E0E35FFD4FE081A981AE0F52
:10045E00EADFE981E0931102E881E093120222962D
:10046E000895A2E00E94E505ACE0DDDFA1E00E9468
:10047E00E505E0E0E0931202E09311020895AA93DD
:10048E00A881AA3031F0E0911302A0911102AE17AB
:10049E0060F0E0E0EA93A0911202AF5FA093120227
:1004AE00CFDFA881AA3009F448C0E0911102EF5FB6
:1004BE00E0931102D89AA881B6DFD8983EC0BA93BD
:1004CE00AA931A93A981BA81ED91A983BA831E2F9B
:1004DE00E03019F0A12FD3DFF5CF188123960895C0
:1004EE00AA93EAB3E06FEABBD29AD09AD19ADA987D
:1004FE00D898D998E881E0931302E058E0930F0260
:10050E00E881E054E0931002A4E1B0E00E945B06A3
:10051E000E94EB050E94EB050E94EB05A0E26FDF47
:10052E0080E991E00197F1F7A8E27DDFA4E07BDF9F
:10053E00A5E879DFA6E077DF94DF21960895BA93D8
:10054E00AA931A930A93AA81BB8112960E9423083A
:10055E00309759F1AA81BB8114960E9423088F010E
:10056E00309761F00230E0E01E0798F0F801319705
:10057E008F01AA81BB811496ED93FC93AA81BB8156
:10058E001296ED91FD913196FE93EE933197AC81DB
:10059E00A083AA81BB810E942308FF232AF0ED913C
:1005AE00FD913196FE93EE9306C0AA81BB81EFEFCB
:1005BE00FFEFED93FC931981088125960895BA9368
:1005CE00AA9326970E94510810E0AC85BD85E0E005
:1005DE00F0E0ED93FC93EA89FB893196EA8BFB8B75
:1005EE003197E4912E2FE03009F415C1E12FE03060
:1005FE0039F4253211F411E002C00E94F3050AC14C
:10060E00E130A9F4253219F40E94F30502C112E07B
:10061E0040E000E02D3211F401E0FCC02B3211F469
:10062E004BE2F8C0203211F440E2F4C002C0E230D6
:10063E0039F450E013E0203311F40068EBC003C02E
:10064E00E33009F0E7C0203310F02A3308F007C07A
:10065E00AAE05A9F502DE22FE0535E0FDBC0E22F2F
:10066E00E33649F40E94FA05E889F989A481AA9330
:10067E000E940006CEC0E33741F40E94FA050E94A4
:10068E0006060E9428051E2F0AC0E03761F40E945C
:10069E00FA050E9406060E9434051E2F08600260AD
:1006AE000F7730E034C0E43611F0E93611F404600F
:1006BE0002C0E53731F4E4E5F0E0EE83FF8315E0A8
:1006CE000CC0E83511F4086003C0E83709F0A1C08A
:1006DE00EEE5F0E0EE83FF8314E002FF14C00E940B
:1006EE00FA050E941006AB85AA233AF4EA85FB852B
:1006FE000E941208EA87FB874DE2403011F01F5F1F
:10070E0001C00B7F04C00E94FA050E94100600FD76
:10071E0011C0151778F407FF08C002FF04C00B7F45
:10072E00242F115001C020E301C020E20E94F305E6
:10073E005150EFCF312F01FF17C03030A1F003FF22
:10074E0006C0EE81FF812591EE83FF8305C0AE8149
:10075E00BF812D91AE83BF830E94F305503009F007
:10076E0051503150EACF4BC020E3EE81FF810E9401
:10077E002708E887F987EE81FF813296EE83FF83A3
:10078E00E885F985AA85BB85AE17BF0750F02F5FA8
:10079E00A885B985EA85FB85EA1BFB0BEA87FB87F3
:1007AE00EFCF2A3328F003FF02C0295F01C0295D75
:1007BE0004FD1AC0213320F4A885B985119709F4D8
:1007CE0009C0531710F000FF01C013C020E207FF4D
:1007DE000BC020E3006102FF07C00B7F4A930E940B
:1007EE000006503009F051500E94F305503009F0C8
:1007FE0051503150A885B985129708F0B5CF00FF3A
:10080E0008C0503031F05150E0E2EA930E940006E9
:10081E00F8CF10E0E0CEAC85BD850E9423080E9483
:10082E00580864960895FF92F82E26970E94530852
:10083E000E941806309719F4EFEFFFEF23C0DE0188
:10084E0016960E940E088D010E941806EE83FF83F5
:10085E00E0E0E887E987DE011A960E940E080E9402
:10086E002308FA93EA931A930A93E6EAF2E0FA93CC
:10087E00EA93DE011A96A3DE9F01AE81BF81E0E00E
:10088E00EC93F9010E945A082A96FF900895BA93A4
:10089E00AA932497E0E0E883E983EA83EFE3EB830E
:1008AE001A930A93EB85FC85EF3FAFEFFA0739F405
:1008BE000E941F06A8EEB0E00E941B05B1C0EF3FDC
:1008CE00AFE7FA0739F40E941F06A9EEB0E00E94C6
:1008DE001B05A6C0AC85AA2362F4E985FA856B8553
:1008EE007C850E9465060E9424060E942906EDE280
:1008FE00EC93A885A73010F0E6E0E8871885E12F85
:10090E001150E03039F00E9430060E9435060E94E8
:10091E003C06F5CF0E9441060E940B070E9424065A
:10092E0010E0E0E0F0E060E87FE30E943C060E9409
:10093E0041060E94EE0788F00E9430060E944A0689
:10094E000E943C061F5F173238F00E941F06ADEE64
:10095E00B0E00E941B0564C0EACF103029F40E945B
:10096E002906E0E3EC932FC0E12F1150E03059F14E
:10097E000E9430060E943506A0E0B0E080E09FE3C2
:10098E000E940B07DF01CB010E9472050E943C06FC
:10099E000E9441060E94A9070E9498060E2F0E94EF
:1009AE002906E02FE05DEC93E02FF0E00E94300688
:1009BE000E941E080E94D1060E945B070E945106EB
:1009CE000E945606D1CFE885E03031F10E9429060B
:1009DE00EEE2EC93E885E150E887EF5FE9F00E94E4
:1009EE0051060E944A060E942406E985FA856B8507
:1009FE007C850E9498060E2F0E942906E02FE05D4E
:100A0E00EC93E02FF0E00E9451060E941E080E9417
:100A1E00D1060E945606DECFAE81BF81E0E0EC9398
:100A2E00198108812D960895BA93AA93E991F991A7
:100A3E00A991B991CD0105900D920020E1F7FC012D
:100A4E000895BA93AA93A991B991EE27FF276D91B4
:100A5E00662311F03196FBCF0895BA93AA93AA2775
:100A6E00BB27E991F9910590002011F01196FBCF6B
:100A7E00FD0108950E943F087B816A81F981E8811A
:100A8E0077FB770F67FD7160972F9E5781F078F097
:100A9E00983190F4AA27BB27882708948795B79595
:100AAE00A7959A95D1F7EA23FB23682305C0E8940E
:100ABE007727EE27FF2766276F77769508F460680D
:100ACE0077F9A991B99189919991EA17FB0768076E
:100ADE00790797FB08950E943F080E9430080E94F4
:100AEE0041050E94350819F40E942B0809C0E6F74B
:100AFE000E942B08A0E0B0E080E89FE30E9404076C
:100B0E0024960895BA93AA930E943802E0E0EA93DD
:100B1E00A0E00C9427020E946602442455240895F6
:100B2E00E8E0F0E04E165F060895F201ADEEB1E09A
:100B3E00EE0FFF1F0895EA0FFB1F0F01F20108953C
:100B4E00EE0FFF1FAE0FBF1F0E942308D001ED93C3
:100B5E00FC93F201ADEFB1E0EE0FFF1FEA0FFB1FAA
:100B6E000F01E3CFAE0FBF1F0E942308D001ED93FC
:100B7E00FC930895AE0FBF1FEC91E8BBA881B9811D
:100B8E000C945B060A921A92FA926A937A938A935B
:100B9E009A93AA93BA93EA93FA93EFB7EA93A4E6D9
:100BAE00B0E00C945B060E943802E0E0EA93A0E00D
:100BBE000C942702A4E6B0E00C945B060E941A0285
:100BCE00A3E0B0E00C945B06A0E30E94060280E96D
:100BDE0091E00197F1F708952A93AD85BE85EF85D3
:100BEE00F88909950895E889F9893497E88BF98B86
:100BFE000895AD85BE85EF85F88909950895A88974
:100C0E00B98914960E942308EE83FF83AE81BF81BB
:100C1E000895A889B98914960E942308EA87FB874C
:100C2E000895DE011C960E940E080E942308089566
:100C3E00EE81FF81FA93EA930895E987FA876B872D
:100C4E007C870895AE81BF811196AE83BF831197C5
:100C5E000895AA81BB818C819D810895EDECFCECF9
:100C6E006CEC7DE30E945B070895EA83FB836C8343
:100C7E007D830895EA81FB816C817D81A985BA858A
:100C8E008B859C850895E0E0F0E060E271E40E94BF
:100C9E005B070895A985BA858B859C8508950E946A
:100CAE0044080E940407C9CF109639F080EA9FE0ED
:100CBE000197F1F7A8951197C9F7089530976040FD
:100CCE00704009F070580895552342F4503811F4CD
:100CDE00E0FF04C03196691F791F6BF050E857276B
:100CEE0011F45F93CFC05F3F31F0660F000C579544
:100CFE006795752F08955F9300200AF0CFC0C8C086
:100D0E0050E8192E1522880F991F9527550F879594
:100D1E0050E8072E0522660F771F7527550F67952A
:100D2E000895689401C0E8945F93F2DF703818F06C
:100D3E007F3F08F4A7C056E1571BAAF451955830CF
:100D4E000EF4593030F0EFEFFFEF6FEF7FE777F9EA
:100D5E001AC077275523B9F0EE0FFF1F661F771FB6
:100D6E005A95D1F710C07727583028F0EF2FF62F6D
:100D7E00672F5850F9CF552331F076956795F79533
:100D8E00E7955A95D1F700200AF449D15F9108955D
:100D9E00689401C0E894309760407040B1F0002430
:100DAE0026F0772312F400943AD1172E7EE111200B
:100DBE0032F07A95EE0FFF1F661F111CF9CFEF2F41
:100DCE00F62F612D5F938ADF5F9108954F93AF01E8
:100DDE00FD01DA01AB01BC01CA01402D012C142E1C
:100DEE004F910895EA0FFB1F681F0895E095F09547
:100DFE006095EF5FFF4F6F4F08955F9381DF9038DF
:100E0E0071F150E8152604C05F937ADF903839F1FE
:100E1E00703821F1572F591B2BF112F4D7DFFACF6F
:100E2E00583118F0AA27BB278827583028F0AB2F47
:100E3E00B82F88275850F9CF552329F08695B795A6
:100E4E00A7955A95D9F7502D512572F0CBDF38F46E
:100E5E006795F795E795739513F420C0B7DF3EDFDE
:100E6E005F910895D8F7FBCFEA1BFB0B680B51F08F
:100E7E0010F40094BBDF662392F3EE0FFF1F661F84
:100E8E007A95CBF7EE27FF27662777275F91089590
:100E9E00EFEFFFEF6FE77FEF5F910895EFEFFFEF5B
:100EAE006FE77FE75F9108955F932ADF703851F304
:100EBE00903841F301240894791F23F41CF3002089
:100ECE003AF3ECCF0F921F932F933F934F9311272B
:100EDE0022279927689FA0018F9F302D410D591F02
:100EEE006B9F300D411D591F8E9F27D0BF9F25D060
:100EFE006A9F23D0BE9F1DD0AF9F1BD0AE9F110DFA
:100F0E00291F391F491F591FE32FF42F652F522F09
:100F1E004F913F912F911F910F9066232AF0550FFD
:100F2E00EE1FFF1F661F02C073954BF2CDDE5F9161
:100F3E000895100D211D391F02C0200D311D491FAE
:100F4E00591F08955F93DCDE703821F411200AF4E6
:100F5E009FCFA4CF903809F495CF01240894970B16
:100F6E001BF4D4F30020F3CF792F1F932F933F93CD
:100F7E004F9311241127222733274427552790E218
:100F8E00AE17BF078607410730F0AE1BBF0B860BAF
:100F9E00410B089401C08894551F221F331F111C4A
:100FAE00AA1FBB1F881F441F9A9551F7F901612D87
:100FBE004F913F912F911F91662332F0550FEE1FE7
:100FCE00FF1F661F7A9543F27FDE5F910895992386
:100FDE009AF0772342F0971748F029F4AE17BF071F
:100FEE00860720F031F09894889408959894089488
:100FFE0008951894889408957723C2F7971798F355
:10100E00A9F7EA17FB07680788F399F3ECCF0024DA
:10101E00AF0DB01D0895F195E195F0400895F0954E
:10102E0060957095E195FF4F6F4F7F4F08956F2F2D
:10103E00660F660B762F0895ED91FC91119708952A
:10104E000590F491E02D0895E881F9816A817B8104
:10105E000895A881B9818A819B810895E883F983D7
:10106E006A837B8308957A936A93FA93EA93089539
:10107E009A938A93BA93AA930895182E862F612D68
:10108E00192E972F712D1B2EBF2FF12D1A2EAE2F2D
:10109E00E12D08955A934A933A932A931A930A93F9
:1010AE0008955D814C813B812A81198108810895C3
:00000001FF
