:0E0000000C9448000C9400000C9400000C942A
:10000E0000000C9400000C9400000C9400000C9462
:10001E0000000C9400000C9400000C9400000C9452
:10002E0000000C9400000C9400000C9400000C9442
:10003E0000000C9400000C9400000C9400000C9432
:10004E0000000C9400000C9400000C9400000C9422
:10005E0000000C9400000C9400001027E8036400CC
:10006E000A000100001000011000010054434E541C
:10007E0030203D202564000080C002001003860061
:10008E000000F894EE27EFBBF1E0F5BFE5BF8DE081
:10009E00A2E0BB27ED938A95E9F780E098E0A0E017
:1000AE00B1E0ED930197E9F7E8E8F0E085919591DD
:1000BE00009761F0A591B59105901590BF01F001E3
:1000CE0005900D920197E1F7FB01F0CFE0E0EEBB5A
:1000DE00EFEFEDBFE8E0EEBFC0E0D3E00C947700A9
:1000EE00E0E8E0936100E0E0E0936100E4B9E5B997
:1000FE00E7B9E8B9EAB9EBB9E4BDE6E0E5BDE0E0A1
:10010E00E6BDE7BDE8BDE0938000E0938100E0939B
:10011E008500E0938400E0938700E0938600E093EF
:10012E008900E0938800E0938B00E0938A00E2E080
:10013E00E4BDE6E0E5BDE0E0E6BDE4E1E7BDE0E01C
:10014E00E8BDE0936E00E0936F00E0937000E093E3
:10015E006900EDBBE0936800E093C100E0E8E0BF0A
:10016E00E0E0E0937B00E0937F00E0937A00ECBD4B
:10017E00E093BC00A0E18DD05AD0E0E0F3E0FA931A
:10018E00EA93EAE7F0E0FA93EA93E6B5FF276627EB
:10019E0077270E94940384E00E94F3022896A0E041
:1001AE00B3E066D0A4EFB1E00E947A03E5CFFFCFB3
:1001BE00AA93E881E07111F02B9A01C02B98E88187
:1001CE00E07211F02C9A01C02C98E881E07411F0C5
:1001DE002D9A01C02D98E881E07811F0409A01C067
:1001EE0040988BE18A95F1F72A9A8BE18A95F1F77F
:1001FE002A988BE18A95F1F779C0AA93A881D8DF66
:10020E00E881E295E883A881D3DF88EC90E001973E
:10021E00F1F76CC0AA93E881F0E0E05FFC4FE0815B
:10022E00A981AE0FEADF4980388022960895A2E0B8
:10023E000E944003ACE0E1DFA1E00E944003E0E059
:10024E003E2E4E2E0895AA93A881AA3011F0461480
:10025E0048F0E0E0EA933394A32DDCDFA881AA30C6
:10026E0009F444C04394289AA881C7DF28983EC059
:10027E00BA93AA931A93A981BA81ED91A983BA83ED
:10028E001E2FE03019F0A12FDEDFF5CF1881239657
:10029E000895AA93239A249A259A389A229A209AF4
:1002AE00219A2A98289829986880E881E058E09346
:1002BE001203E881E054E0931303A4E1B0E00E943E
:1002CE007A030E9446030E9446030E944603A0E260
:1002DE006FDF80E991E00197F1F7A8E28EDFA4E0ED
:1002EE008CDFA5E88ADFA6E088DFA1DF21960895DE
:1002FE00BA93AA931A930A93AA81BB8112960E946B
:10030E008C03309759F1AA81BB8114960E948C03FD
:10031E008F01309761F00230E0E01E0798F0F8018F
:10032E0031978F01AA81BB811496ED93FC93AA811C
:10033E00BB811296ED91FD913196FE93EE9331971E
:10034E00AC81A083AA81BB810E948C03FF232AF07B
:10035E00ED91FD913196FE93EE9306C0AA81BB817D
:10036E00EFEFFFEFED93FC93198108812596089529
:10037E00BA93AA9326970E94990310E0AC85BD8587
:10038E00E0E0F0E0ED93FC93EA89FB893196EA8B8D
:10039E00FB8B3197E4912E2FE03009F415C1E12F3C
:1003AE00E03039F4253211F411E002C00E944E0300
:1003BE000AC1E130A9F4253219F40E944E0302C19C
:1003CE0012E040E000E02D3211F401E0FCC02B32CF
:1003DE0011F44BE2F8C0203211F440E2F4C002C036
:1003EE00E23039F450E013E0203311F40068EBC032
:1003FE0003C0E33009F0E7C0203310F02A3308F0D1
:10040E0007C0AAE05A9F502DE22FE0535E0FDBC0CB
:10041E00E22FE33649F40E945503E889F989A48155
:10042E00AA930E945B03CEC0E33741F40E945503AA
:10043E000E9461030E9427031E2F0AC0E03761F459
:10044E000E9455030E9461030E9433031E2F086011
:10045E0002600F7730E034C0E43611F0E93611F463
:10046E00046002C0E53731F4E8E6F0E0EE83FF8386
:10047E0015E00CC0E83511F4086003C0E83709F048
:10048E00A1C0E2E7F0E0EE83FF8314E002FF14C0A8
:10049E000E9455030E946B03AB85AA233AF4EA85AA
:1004AE00FB850E948803EA87FB874DE2403011F0FE
:1004BE001F5F01C00B7F04C00E9455030E946B0397
:1004CE0000FD11C0151778F407FF08C002FF04C025
:1004DE000B7F242F115001C020E301C020E20E94A7
:1004EE004E035150EFCF312F01FF17C03030A1F026
:1004FE0003FF06C0EE81FF812591EE83FF8305C0C9
:10050E00AE81BF812D91AE83BF830E944E035030CA
:10051E0009F051503150EACF4BC020E3EE81FF81FC
:10052E000E949003E887F987EE81FF813296EE8371
:10053E00FF83E885F985AA85BB85AE17BF0750F006
:10054E002F5FA885B985EA85FB85EA1BFB0BEA8739
:10055E00FB87EFCF2A3328F003FF02C0295F01C0CB
:10056E00295D04FD1AC0213320F4A885B9851197A1
:10057E0009F409C0531710F000FF01C013C020E2A8
:10058E0007FF0BC020E3006102FF07C00B7F4A93F9
:10059E000E945B03503009F051500E944E035030C0
:1005AE0009F051503150A885B985129708F0B5CF92
:1005BE0000FF08C0503031F05150E0E2EA930E9443
:1005CE005B03F8CF10E0E0CEAC85BD850E948C03B6
:1005DE000E94A00364960895FF92F82E26970E941B
:1005EE009B030E947303309719F4EFEFFFEF23C0C4
:1005FE00DE0116960E9484038D010E947303EE8322
:10060E00FF83E0E0E887E987DE011A960E94840303
:10061E000E948C03FA93EA931A930A93EFE7F1E0A0
:10062E00FA93EA93DE011A96A3DE9F01AE81BF8193
:10063E00E0E0EC93F9010E94A2032A96FF90089540
:10064E00BA93AA93A991B991EE27FF276D916623CC
:10065E0011F03196FBCF0895BA93AA93AA27BB2720
:10066E00E991F9910590002011F01196FBCFFD0153
:10067E0008950E940401A3E0B0E00C947A03A0E375
:10068E000E94DF0080E991E00197F1F708952A9327
:10069E00AD85BE85EF85F88909950895E889F989B4
:1006AE003497E88BF98B0895AD85BE85EF85F88973
:1006BE0009950895A889B98914960E948C03EE8332
:1006CE00FF83AE81BF810895A889B98914960E94CF
:1006DE008C03EA87FB870895DE011C960E94840333
:1006EE000E948C030895109639F080EA9FE00197DE
:1006FE00F1F7A8951197C9F708950024AF0DB01D15
:10070E000895F195E195F0400895ED91FC911197C2
:10071E0008950590F491E02D08957A936A93FA93D3
:10072E00EA9308955A934A933A932A931A930A9303
:10073E0008955D814C813B812A811981088108953C
:00000001FF
