:100000000C942A000C9441000C9434000C9434009D
:100010000C9434000C9434000C9434000C94340090
:100020000C9434000C9434000C9434000C94340080
:100030000C9434000C9434000C9434000C94340070
:100040000C9434000C9434000C9434000C94340060
:100050000C94340011241FBECFE5D4E0DEBFCDBF29
:100060000E9436000C945C000C9400008BB78064F6
:100070008BBF85B7846085BF789480E881BB12BA56
:10008000FECF1F920F920FB60F9211242F938F93D2
:100090009F9380E882BB2FEF89E698E12150804052
:1000A0009040E1F700C000009F918F912F910F9039
:0C00B0000FBE0F901F901895F894FFCF22
:00000001FF
