S00C00004750494F2E73726563E9
S11300000C942A000C9434000C9434000C943400A6
S11300100C9434000C9434000C9434000C9434008C
S11300200C9434000C9434000C9434000C9434007C
S11300300C9434000C9434000C9434000C9434006C
S11300400C9434000C9434000C9434000C9434005C
S11300500C94340011241FBECFE5D4E0DEBFCDBF25
S11300600E9436000C944B000C9400008FE084BB7B
S113007015BA82E081BB80E020E091E08099FECF58
S1130080809BFECF929A80FD03C0919A892FF6CF70
S10D00909198822FF3CFF894FFCF6C
S9030000FC
