:020000000C945E
:100002004F000C9400000C9400000C9400000C941F
:1000120000000C9400000C9400000C9400000C945E
:1000220000000C9400000C9400000C9400000C944E
:1000320000000C9400000C9400000C9400000C943E
:1000420000000C9400000C9400000C9400000C942E
:1000520000000C9400000C9400000C9400000C941E
:1000620000000C94000048656C6C6F206576657228
:1000720079626F64790049276D20484F4E474441A9
:1000820054434859000080C01000000368000F006C
:100092001003780002001F0388000000F894EE2786
:1000A200EFBBF1E0F5BFE5BF8DE0A2E0BB27ED932A
:1000B2008A95E9F780E098E0A0E0B1E0ED9301973E
:1000C200E9F7EAE8F0E085919591009761F0A59152
:1000D200B59105901590BF01F00105900D92019721
:1000E200E1F7FB01F0CFE0E0EEBBEFEFEDBFE8E0C0
:1000F200EEBFC0E0D3E00C947E00E0E8E093610044
:10010200E0E0E0936100E4B9E5B9E7B9E8B9EAB93A
:10011200EBB9E4BDE5BDE6BDE7BDE8BDE093800017
:10012200E0938100E0938500E0938400E0938700F0
:10013200E0938600E0938900E0938800E0938B00CF
:10014200E0938A00E093B600E093B000E093B10040
:10015200E093B200E093B300E093B400E0936E004A
:10016200E0936F00E0937000E0936900EDBBE093D1
:100172006800E093C100E0E8E0BFE0E0E0937B00CC
:10018200E0937F00E0937A00ECBDE093BC00A0E135
:1001920080D0A0E0B3E0A9D0E0E0EA93A1E03CD0B7
:1001A200A0E1B3E0A2D045D0A0E9B1E00E9487016E
:1001B200F0CFFFCFAA93E881E07111F02B9A01C032
:1001C2002B98E881E07211F02C9A01C02C98E881FA
:1001D200E07411F02D9A01C02D98E881E07811F0B9
:1001E200409A01C040988BE18A95F1F72A9A8BE1F7
:1001F2008A95F1F72A988BE18A95F1F774C0AA9350
:10020200A881D8DFE881E295E883A881D3DF88EC72
:1002120090E00197F1F767C0AA93E881F0E0E15E10
:10022200FC4FE081A981AE0FEADF49803880229637
:100232000895A2E05FD0ACE0E2DFA1E05BD0E0E0B5
:100242003E2E4E2E0895AA93A881AA3011F046148C
:1002520048F0E0E0EA933394A32DDEDFA881AA30D0
:1002620009F441C04394289AA881C9DF28983BC069
:10027200BA93AA931A93A981BA81ED91A983BA83F9
:100282001E2FE03019F0A12FDEDFF5CF1881239663
:100292000895AA93239A249A259A389A229A209A00
:1002A200219A2A98289829986880E881E058E09352
:1002B2002103E881E054E0932203A4E1B0E00E942C
:1002C20087011DD01CD01BD0A0E274DF80E991E031
:1002D2000197F1F7A8E293DFA4E091DFA5E88FDFB1
:1002E200A6E08DDFA6DF21960895C2DFA8EEB3E077
:1002F2000C94870184DFA3E0B0E00C948701A0E3B3
:1003020059DF80E991E00197F1F70895109639F0ED
:1003120080EA9FE00197F1F7A8951197C9F7089530
:00000001FF
