S00D000054494D45522E7372656396
S11300000C942A000C9434000C9434000C943400A6
S11300100C9434000C9434000C9434000C9434008C
S11300200C9434000C9434000C9434000C9434007C
S11300300C9434000C9434000C9434000C9434006C
S11300400C9434000C9434000C9434000C9434005C
S11300500C94340011241FBECFE5D4E0DEBFCDBF25
S11300600E9436000C9444000C94000017BA8FEFE1
S113007084BB83B7866083BF12BE82B78A3009F41B
S10F008012BE82B785BBF9CFF894FFCF05
S9030000FC
